{
  "_format": "hh-sol-artifact-1",
  "contractName": "RealEstate",
  "sourceName": "contracts/RealEstate.sol",
  "abi": [
    {
      "inputs": [
        {
          "internalType": "address",
          "name": "initialOwner",
          "type": "address"
        }
      ],
      "stateMutability": "nonpayable",
      "type": "constructor"
    },
    {
      "inputs": [
        {
          "internalType": "address",
          "name": "sender",
          "type": "address"
        },
        {
          "internalType": "uint256",
          "name": "tokenId",
          "type": "uint256"
        },
        {
          "internalType": "address",
          "name": "owner",
          "type": "address"
        }
      ],
      "name": "ERC721IncorrectOwner",
      "type": "error"
    },
    {
      "inputs": [
        {
          "internalType": "address",
          "name": "operator",
          "type": "address"
        },
        {
          "internalType": "uint256",
          "name": "tokenId",
          "type": "uint256"
        }
      ],
      "name": "ERC721InsufficientApproval",
      "type": "error"
    },
    {
      "inputs": [
        {
          "internalType": "address",
          "name": "approver",
          "type": "address"
        }
      ],
      "name": "ERC721InvalidApprover",
      "type": "error"
    },
    {
      "inputs": [
        {
          "internalType": "address",
          "name": "operator",
          "type": "address"
        }
      ],
      "name": "ERC721InvalidOperator",
      "type": "error"
    },
    {
      "inputs": [
        {
          "internalType": "address",
          "name": "owner",
          "type": "address"
        }
      ],
      "name": "ERC721InvalidOwner",
      "type": "error"
    },
    {
      "inputs": [
        {
          "internalType": "address",
          "name": "receiver",
          "type": "address"
        }
      ],
      "name": "ERC721InvalidReceiver",
      "type": "error"
    },
    {
      "inputs": [
        {
          "internalType": "address",
          "name": "sender",
          "type": "address"
        }
      ],
      "name": "ERC721InvalidSender",
      "type": "error"
    },
    {
      "inputs": [
        {
          "internalType": "uint256",
          "name": "tokenId",
          "type": "uint256"
        }
      ],
      "name": "ERC721NonexistentToken",
      "type": "error"
    },
    {
      "inputs": [
        {
          "internalType": "address",
          "name": "owner",
          "type": "address"
        }
      ],
      "name": "OwnableInvalidOwner",
      "type": "error"
    },
    {
      "inputs": [
        {
          "internalType": "address",
          "name": "account",
          "type": "address"
        }
      ],
      "name": "OwnableUnauthorizedAccount",
      "type": "error"
    },
    {
      "anonymous": false,
      "inputs": [
        {
          "indexed": true,
          "internalType": "address",
          "name": "owner",
          "type": "address"
        },
        {
          "indexed": true,
          "internalType": "address",
          "name": "approved",
          "type": "address"
        },
        {
          "indexed": true,
          "internalType": "uint256",
          "name": "tokenId",
          "type": "uint256"
        }
      ],
      "name": "Approval",
      "type": "event"
    },
    {
      "anonymous": false,
      "inputs": [
        {
          "indexed": true,
          "internalType": "address",
          "name": "owner",
          "type": "address"
        },
        {
          "indexed": true,
          "internalType": "address",
          "name": "operator",
          "type": "address"
        },
        {
          "indexed": false,
          "internalType": "bool",
          "name": "approved",
          "type": "bool"
        }
      ],
      "name": "ApprovalForAll",
      "type": "event"
    },
    {
      "anonymous": false,
      "inputs": [
        {
          "indexed": false,
          "internalType": "uint256",
          "name": "_fromTokenId",
          "type": "uint256"
        },
        {
          "indexed": false,
          "internalType": "uint256",
          "name": "_toTokenId",
          "type": "uint256"
        }
      ],
      "name": "BatchMetadataUpdate",
      "type": "event"
    },
    {
      "anonymous": false,
      "inputs": [
        {
          "indexed": false,
          "internalType": "uint256",
          "name": "_tokenId",
          "type": "uint256"
        }
      ],
      "name": "MetadataUpdate",
      "type": "event"
    },
    {
      "anonymous": false,
      "inputs": [
        {
          "indexed": true,
          "internalType": "address",
          "name": "previousOwner",
          "type": "address"
        },
        {
          "indexed": true,
          "internalType": "address",
          "name": "newOwner",
          "type": "address"
        }
      ],
      "name": "OwnershipTransferred",
      "type": "event"
    },
    {
      "anonymous": false,
      "inputs": [
        {
          "indexed": true,
          "internalType": "address",
          "name": "from",
          "type": "address"
        },
        {
          "indexed": true,
          "internalType": "address",
          "name": "to",
          "type": "address"
        },
        {
          "indexed": true,
          "internalType": "uint256",
          "name": "tokenId",
          "type": "uint256"
        }
      ],
      "name": "Transfer",
      "type": "event"
    },
    {
      "inputs": [
        {
          "internalType": "address",
          "name": "to",
          "type": "address"
        },
        {
          "internalType": "uint256",
          "name": "tokenId",
          "type": "uint256"
        }
      ],
      "name": "approve",
      "outputs": [],
      "stateMutability": "nonpayable",
      "type": "function"
    },
    {
      "inputs": [
        {
          "internalType": "address",
          "name": "owner",
          "type": "address"
        }
      ],
      "name": "balanceOf",
      "outputs": [
        {
          "internalType": "uint256",
          "name": "",
          "type": "uint256"
        }
      ],
      "stateMutability": "view",
      "type": "function"
    },
    {
      "inputs": [
        {
          "internalType": "uint256",
          "name": "tokenId",
          "type": "uint256"
        }
      ],
      "name": "getApproved",
      "outputs": [
        {
          "internalType": "address",
          "name": "",
          "type": "address"
        }
      ],
      "stateMutability": "view",
      "type": "function"
    },
    {
      "inputs": [
        {
          "internalType": "address",
          "name": "owner",
          "type": "address"
        },
        {
          "internalType": "address",
          "name": "operator",
          "type": "address"
        }
      ],
      "name": "isApprovedForAll",
      "outputs": [
        {
          "internalType": "bool",
          "name": "",
          "type": "bool"
        }
      ],
      "stateMutability": "view",
      "type": "function"
    },
    {
      "inputs": [],
      "name": "name",
      "outputs": [
        {
          "internalType": "string",
          "name": "",
          "type": "string"
        }
      ],
      "stateMutability": "view",
      "type": "function"
    },
    {
      "inputs": [],
      "name": "owner",
      "outputs": [
        {
          "internalType": "address",
          "name": "",
          "type": "address"
        }
      ],
      "stateMutability": "view",
      "type": "function"
    },
    {
      "inputs": [
        {
          "internalType": "uint256",
          "name": "tokenId",
          "type": "uint256"
        }
      ],
      "name": "ownerOf",
      "outputs": [
        {
          "internalType": "address",
          "name": "",
          "type": "address"
        }
      ],
      "stateMutability": "view",
      "type": "function"
    },
    {
      "inputs": [],
      "name": "renounceOwnership",
      "outputs": [],
      "stateMutability": "nonpayable",
      "type": "function"
    },
    {
      "inputs": [
        {
          "internalType": "address",
          "name": "to",
          "type": "address"
        },
        {
          "internalType": "string",
          "name": "uri",
          "type": "string"
        }
      ],
      "name": "safeMint",
      "outputs": [],
      "stateMutability": "nonpayable",
      "type": "function"
    },
    {
      "inputs": [
        {
          "internalType": "address",
          "name": "from",
          "type": "address"
        },
        {
          "internalType": "address",
          "name": "to",
          "type": "address"
        },
        {
          "internalType": "uint256",
          "name": "tokenId",
          "type": "uint256"
        }
      ],
      "name": "safeTransferFrom",
      "outputs": [],
      "stateMutability": "nonpayable",
      "type": "function"
    },
    {
      "inputs": [
        {
          "internalType": "address",
          "name": "from",
          "type": "address"
        },
        {
          "internalType": "address",
          "name": "to",
          "type": "address"
        },
        {
          "internalType": "uint256",
          "name": "tokenId",
          "type": "uint256"
        },
        {
          "internalType": "bytes",
          "name": "data",
          "type": "bytes"
        }
      ],
      "name": "safeTransferFrom",
      "outputs": [],
      "stateMutability": "nonpayable",
      "type": "function"
    },
    {
      "inputs": [
        {
          "internalType": "address",
          "name": "operator",
          "type": "address"
        },
        {
          "internalType": "bool",
          "name": "approved",
          "type": "bool"
        }
      ],
      "name": "setApprovalForAll",
      "outputs": [],
      "stateMutability": "nonpayable",
      "type": "function"
    },
    {
      "inputs": [
        {
          "internalType": "bytes4",
          "name": "interfaceId",
          "type": "bytes4"
        }
      ],
      "name": "supportsInterface",
      "outputs": [
        {
          "internalType": "bool",
          "name": "",
          "type": "bool"
        }
      ],
      "stateMutability": "view",
      "type": "function"
    },
    {
      "inputs": [],
      "name": "symbol",
      "outputs": [
        {
          "internalType": "string",
          "name": "",
          "type": "string"
        }
      ],
      "stateMutability": "view",
      "type": "function"
    },
    {
      "inputs": [
        {
          "internalType": "uint256",
          "name": "tokenId",
          "type": "uint256"
        }
      ],
      "name": "tokenURI",
      "outputs": [
        {
          "internalType": "string",
          "name": "",
          "type": "string"
        }
      ],
      "stateMutability": "view",
      "type": "function"
    },
    {
      "inputs": [],
      "name": "totalSupply",
      "outputs": [
        {
          "internalType": "uint256",
          "name": "",
          "type": "uint256"
        }
      ],
      "stateMutability": "view",
      "type": "function"
    },
    {
      "inputs": [
        {
          "internalType": "address",
          "name": "from",
          "type": "address"
        },
        {
          "internalType": "address",
          "name": "to",
          "type": "address"
        },
        {
          "internalType": "uint256",
          "name": "tokenId",
          "type": "uint256"
        }
      ],
      "name": "transferFrom",
      "outputs": [],
      "stateMutability": "nonpayable",
      "type": "function"
    },
    {
      "inputs": [
        {
          "internalType": "address",
          "name": "newOwner",
          "type": "address"
        }
      ],
      "name": "transferOwnership",
      "outputs": [],
      "stateMutability": "nonpayable",
      "type": "function"
    }
  ],
  "bytecode": "0x60806040523480156200001157600080fd5b5060405162002ce638038062002ce6833981810160405281019062000037919062000288565b806040518060400160405280600a81526020017f5265616c457374617465000000000000000000000000000000000000000000008152506040518060400160405280600281526020017f52530000000000000000000000000000000000000000000000000000000000008152508160009081620000b5919062000534565b508060019081620000c7919062000534565b505050600073ffffffffffffffffffffffffffffffffffffffff168173ffffffffffffffffffffffffffffffffffffffff16036200013f5760006040517f1e4fbdf70000000000000000000000000000000000000000000000000000000081526004016200013691906200062c565b60405180910390fd5b62000150816200015860201b60201c565b505062000649565b6000600760009054906101000a900473ffffffffffffffffffffffffffffffffffffffff16905081600760006101000a81548173ffffffffffffffffffffffffffffffffffffffff021916908373ffffffffffffffffffffffffffffffffffffffff1602179055508173ffffffffffffffffffffffffffffffffffffffff168173ffffffffffffffffffffffffffffffffffffffff167f8be0079c531659141344cd1fd0a4f28419497f9722a3daafe3b4186f6b6457e060405160405180910390a35050565b600080fd5b600073ffffffffffffffffffffffffffffffffffffffff82169050919050565b6000620002508262000223565b9050919050565b620002628162000243565b81146200026e57600080fd5b50565b600081519050620002828162000257565b92915050565b600060208284031215620002a157620002a06200021e565b5b6000620002b18482850162000271565b91505092915050565b600081519050919050565b7f4e487b7100000000000000000000000000000000000000000000000000000000600052604160045260246000fd5b7f4e487b7100000000000000000000000000000000000000000000000000000000600052602260045260246000fd5b600060028204905060018216806200033c57607f821691505b602082108103620003525762000351620002f4565b5b50919050565b60008190508160005260206000209050919050565b60006020601f8301049050919050565b600082821b905092915050565b600060088302620003bc7fffffffffffffffffffffffffffffffffffffffffffffffffffffffffffffffff826200037d565b620003c886836200037d565b95508019841693508086168417925050509392505050565b6000819050919050565b6000819050919050565b6000620004156200040f6200040984620003e0565b620003ea565b620003e0565b9050919050565b6000819050919050565b6200043183620003f4565b6200044962000440826200041c565b8484546200038a565b825550505050565b600090565b6200046062000451565b6200046d81848462000426565b505050565b5b8181101562000495576200048960008262000456565b60018101905062000473565b5050565b601f821115620004e457620004ae8162000358565b620004b9846200036d565b81016020851015620004c9578190505b620004e1620004d8856200036d565b83018262000472565b50505b505050565b600082821c905092915050565b60006200050960001984600802620004e9565b1980831691505092915050565b6000620005248383620004f6565b9150826002028217905092915050565b6200053f82620002ba565b67ffffffffffffffff8111156200055b576200055a620002c5565b5b62000567825462000323565b6200057482828562000499565b600060209050601f831160018114620005ac576000841562000597578287015190505b620005a3858262000516565b86555062000613565b601f198416620005bc8662000358565b60005b82811015620005e657848901518255600182019150602085019450602081019050620005bf565b8683101562000606578489015162000602601f891682620004f6565b8355505b6001600288020188555050505b505050505050565b620006268162000243565b82525050565b60006020820190506200064360008301846200061b565b92915050565b61268d80620006596000396000f3fe608060405234801561001057600080fd5b50600436106101165760003560e01c8063715018a6116100a2578063b88d4fde11610071578063b88d4fde146102cd578063c87b56dd146102e9578063d204c45e14610319578063e985e9c514610335578063f2fde38b1461036557610116565b8063715018a61461026b5780638da5cb5b1461027557806395d89b4114610293578063a22cb465146102b157610116565b806318160ddd116100e957806318160ddd146101b557806323b872dd146101d357806342842e0e146101ef5780636352211e1461020b57806370a082311461023b57610116565b806301ffc9a71461011b57806306fdde031461014b578063081812fc14610169578063095ea7b314610199575b600080fd5b61013560048036038101906101309190611ae5565b610381565b6040516101429190611b2d565b60405180910390f35b6101536103e2565b6040516101609190611bd8565b60405180910390f35b610183600480360381019061017e9190611c30565b610474565b6040516101909190611c9e565b60405180910390f35b6101b360048036038101906101ae9190611ce5565b610490565b005b6101bd6104a6565b6040516101ca9190611d34565b60405180910390f35b6101ed60048036038101906101e89190611d4f565b6104b0565b005b61020960048036038101906102049190611d4f565b6105b2565b005b61022560048036038101906102209190611c30565b6105d2565b6040516102329190611c9e565b60405180910390f35b61025560048036038101906102509190611da2565b6105e4565b6040516102629190611d34565b60405180910390f35b61027361069e565b005b61027d6106b2565b60405161028a9190611c9e565b60405180910390f35b61029b6106dc565b6040516102a89190611bd8565b60405180910390f35b6102cb60048036038101906102c69190611dfb565b61076e565b005b6102e760048036038101906102e29190611f70565b610784565b005b61030360048036038101906102fe9190611c30565b6107a1565b6040516103109190611bd8565b60405180910390f35b610333600480360381019061032e9190612094565b6108b4565b005b61034f600480360381019061034a91906120f0565b6108f0565b60405161035c9190611b2d565b60405180910390f35b61037f600480360381019061037a9190611da2565b610984565b005b6000634906490660e01b7bffffffffffffffffffffffffffffffffffffffffffffffffffffffff1916827bffffffffffffffffffffffffffffffffffffffffffffffffffffffff191614806103db57506103da82610a0a565b5b9050919050565b6060600080546103f19061215f565b80601f016020809104026020016040519081016040528092919081815260200182805461041d9061215f565b801561046a5780601f1061043f5761010080835404028352916020019161046a565b820191906000526020600020905b81548152906001019060200180831161044d57829003601f168201915b5050505050905090565b600061047f82610aec565b5061048982610b74565b9050919050565b6104a2828261049d610bb1565b610bb9565b5050565b6000600854905090565b600073ffffffffffffffffffffffffffffffffffffffff168273ffffffffffffffffffffffffffffffffffffffff16036105225760006040517f64a0ae920000000000000000000000000000000000000000000000000000000081526004016105199190611c9e565b60405180910390fd5b60006105368383610531610bb1565b610bcb565b90508373ffffffffffffffffffffffffffffffffffffffff168173ffffffffffffffffffffffffffffffffffffffff16146105ac578382826040517f64283d7b0000000000000000000000000000000000000000000000000000000081526004016105a393929190612190565b60405180910390fd5b50505050565b6105cd83838360405180602001604052806000815250610784565b505050565b60006105dd82610aec565b9050919050565b60008073ffffffffffffffffffffffffffffffffffffffff168273ffffffffffffffffffffffffffffffffffffffff16036106575760006040517f89c62b6400000000000000000000000000000000000000000000000000000000815260040161064e9190611c9e565b60405180910390fd5b600360008373ffffffffffffffffffffffffffffffffffffffff1673ffffffffffffffffffffffffffffffffffffffff168152602001908152602001600020549050919050565b6106a6610de5565b6106b06000610e6c565b565b6000600760009054906101000a900473ffffffffffffffffffffffffffffffffffffffff16905090565b6060600180546106eb9061215f565b80601f01602080910402602001604051908101604052809291908181526020018280546107179061215f565b80156107645780601f1061073957610100808354040283529160200191610764565b820191906000526020600020905b81548152906001019060200180831161074757829003601f168201915b5050505050905090565b610780610779610bb1565b8383610f32565b5050565b61078f8484846104b0565b61079b848484846110a1565b50505050565b60606107ac82610aec565b5060006006600084815260200190815260200160002080546107cd9061215f565b80601f01602080910402602001604051908101604052809291908181526020018280546107f99061215f565b80156108465780601f1061081b57610100808354040283529160200191610846565b820191906000526020600020905b81548152906001019060200180831161082957829003601f168201915b505050505090506000610857611258565b9050600081510361086c5781925050506108af565b6000825111156108a1578082604051602001610889929190612203565b604051602081830303815290604052925050506108af565b6108aa8461126f565b925050505b919050565b6108bc610de5565b6000600860008154809291906108d190612256565b9190505590506108e183826112d8565b6108eb81836112f6565b505050565b6000600560008473ffffffffffffffffffffffffffffffffffffffff1673ffffffffffffffffffffffffffffffffffffffff16815260200190815260200160002060008373ffffffffffffffffffffffffffffffffffffffff1673ffffffffffffffffffffffffffffffffffffffff16815260200190815260200160002060009054906101000a900460ff16905092915050565b61098c610de5565b600073ffffffffffffffffffffffffffffffffffffffff168173ffffffffffffffffffffffffffffffffffffffff16036109fe5760006040517f1e4fbdf70000000000000000000000000000000000000000000000000000000081526004016109f59190611c9e565b60405180910390fd5b610a0781610e6c565b50565b60007f80ac58cd000000000000000000000000000000000000000000000000000000007bffffffffffffffffffffffffffffffffffffffffffffffffffffffff1916827bffffffffffffffffffffffffffffffffffffffffffffffffffffffff19161480610ad557507f5b5e139f000000000000000000000000000000000000000000000000000000007bffffffffffffffffffffffffffffffffffffffffffffffffffffffff1916827bffffffffffffffffffffffffffffffffffffffffffffffffffffffff1916145b80610ae55750610ae482611352565b5b9050919050565b600080610af8836113bc565b9050600073ffffffffffffffffffffffffffffffffffffffff168173ffffffffffffffffffffffffffffffffffffffff1603610b6b57826040517f7e273289000000000000000000000000000000000000000000000000000000008152600401610b629190611d34565b60405180910390fd5b80915050919050565b60006004600083815260200190815260200160002060009054906101000a900473ffffffffffffffffffffffffffffffffffffffff169050919050565b600033905090565b610bc683838360016113f9565b505050565b600080610bd7846113bc565b9050600073ffffffffffffffffffffffffffffffffffffffff168373ffffffffffffffffffffffffffffffffffffffff1614610c1957610c188184866115be565b5b600073ffffffffffffffffffffffffffffffffffffffff168173ffffffffffffffffffffffffffffffffffffffff1614610caa57610c5b6000856000806113f9565b6001600360008373ffffffffffffffffffffffffffffffffffffffff1673ffffffffffffffffffffffffffffffffffffffff168152602001908152602001600020600082825403925050819055505b600073ffffffffffffffffffffffffffffffffffffffff168573ffffffffffffffffffffffffffffffffffffffff1614610d2d576001600360008773ffffffffffffffffffffffffffffffffffffffff1673ffffffffffffffffffffffffffffffffffffffff168152602001908152602001600020600082825401925050819055505b846002600086815260200190815260200160002060006101000a81548173ffffffffffffffffffffffffffffffffffffffff021916908373ffffffffffffffffffffffffffffffffffffffff160217905550838573ffffffffffffffffffffffffffffffffffffffff168273ffffffffffffffffffffffffffffffffffffffff167fddf252ad1be2c89b69c2b068fc378daa952ba7f163c4a11628f55a4df523b3ef60405160405180910390a4809150509392505050565b610ded610bb1565b73ffffffffffffffffffffffffffffffffffffffff16610e0b6106b2565b73ffffffffffffffffffffffffffffffffffffffff1614610e6a57610e2e610bb1565b6040517f118cdaa7000000000000000000000000000000000000000000000000000000008152600401610e619190611c9e565b60405180910390fd5b565b6000600760009054906101000a900473ffffffffffffffffffffffffffffffffffffffff16905081600760006101000a81548173ffffffffffffffffffffffffffffffffffffffff021916908373ffffffffffffffffffffffffffffffffffffffff1602179055508173ffffffffffffffffffffffffffffffffffffffff168173ffffffffffffffffffffffffffffffffffffffff167f8be0079c531659141344cd1fd0a4f28419497f9722a3daafe3b4186f6b6457e060405160405180910390a35050565b600073ffffffffffffffffffffffffffffffffffffffff168273ffffffffffffffffffffffffffffffffffffffff1603610fa357816040517f5b08ba18000000000000000000000000000000000000000000000000000000008152600401610f9a9190611c9e565b60405180910390fd5b80600560008573ffffffffffffffffffffffffffffffffffffffff1673ffffffffffffffffffffffffffffffffffffffff16815260200190815260200160002060008473ffffffffffffffffffffffffffffffffffffffff1673ffffffffffffffffffffffffffffffffffffffff16815260200190815260200160002060006101000a81548160ff0219169083151502179055508173ffffffffffffffffffffffffffffffffffffffff168373ffffffffffffffffffffffffffffffffffffffff167f17307eab39ab6107e8899845ad3d59bd9653f200f220920489ca2b5937696c31836040516110949190611b2d565b60405180910390a3505050565b60008373ffffffffffffffffffffffffffffffffffffffff163b1115611252578273ffffffffffffffffffffffffffffffffffffffff1663150b7a026110e5610bb1565b8685856040518563ffffffff1660e01b815260040161110794939291906122f3565b6020604051808303816000875af192505050801561114357506040513d601f19601f820116820180604052508101906111409190612354565b60015b6111c7573d8060008114611173576040519150601f19603f3d011682016040523d82523d6000602084013e611178565b606091505b5060008151036111bf57836040517f64a0ae920000000000000000000000000000000000000000000000000000000081526004016111b69190611c9e565b60405180910390fd5b805181602001fd5b63150b7a0260e01b7bffffffffffffffffffffffffffffffffffffffffffffffffffffffff1916817bffffffffffffffffffffffffffffffffffffffffffffffffffffffff19161461125057836040517f64a0ae920000000000000000000000000000000000000000000000000000000081526004016112479190611c9e565b60405180910390fd5b505b50505050565b606060405180602001604052806000815250905090565b606061127a82610aec565b506000611285611258565b905060008151116112a557604051806020016040528060008152506112d0565b806112af84611682565b6040516020016112c0929190612203565b6040516020818303038152906040525b915050919050565b6112f2828260405180602001604052806000815250611750565b5050565b80600660008481526020019081526020016000209081611316919061252d565b507ff8e1a15aba9398e019f0b49df1a4fde98ee17ae345cb5f6b5e2c27f5033e8ce7826040516113469190611d34565b60405180910390a15050565b60007f01ffc9a7000000000000000000000000000000000000000000000000000000007bffffffffffffffffffffffffffffffffffffffffffffffffffffffff1916827bffffffffffffffffffffffffffffffffffffffffffffffffffffffff1916149050919050565b60006002600083815260200190815260200160002060009054906101000a900473ffffffffffffffffffffffffffffffffffffffff169050919050565b80806114325750600073ffffffffffffffffffffffffffffffffffffffff168273ffffffffffffffffffffffffffffffffffffffff1614155b1561156657600061144284610aec565b9050600073ffffffffffffffffffffffffffffffffffffffff168373ffffffffffffffffffffffffffffffffffffffff16141580156114ad57508273ffffffffffffffffffffffffffffffffffffffff168173ffffffffffffffffffffffffffffffffffffffff1614155b80156114c057506114be81846108f0565b155b1561150257826040517fa9fbf51f0000000000000000000000000000000000000000000000000000000081526004016114f99190611c9e565b60405180910390fd5b811561156457838573ffffffffffffffffffffffffffffffffffffffff168273ffffffffffffffffffffffffffffffffffffffff167f8c5be1e5ebec7d5bd14f71427d1e84f3dd0314c0f7b2291e5b200ac8c7c3b92560405160405180910390a45b505b836004600085815260200190815260200160002060006101000a81548173ffffffffffffffffffffffffffffffffffffffff021916908373ffffffffffffffffffffffffffffffffffffffff16021790555050505050565b6115c983838361176c565b61167d57600073ffffffffffffffffffffffffffffffffffffffff168373ffffffffffffffffffffffffffffffffffffffff160361163e57806040517f7e2732890000000000000000000000000000000000000000000000000000000081526004016116359190611d34565b60405180910390fd5b81816040517f177e802f0000000000000000000000000000000000000000000000000000000081526004016116749291906125ff565b60405180910390fd5b505050565b6060600060016116918461182d565b01905060008167ffffffffffffffff8111156116b0576116af611e45565b5b6040519080825280601f01601f1916602001820160405280156116e25781602001600182028036833780820191505090505b509050600082602001820190505b600115611745578080600190039150507f3031323334353637383961626364656600000000000000000000000000000000600a86061a8153600a858161173957611738612628565b5b049450600085036116f0575b819350505050919050565b61175a8383611980565b61176760008484846110a1565b505050565b60008073ffffffffffffffffffffffffffffffffffffffff168373ffffffffffffffffffffffffffffffffffffffff161415801561182457508273ffffffffffffffffffffffffffffffffffffffff168473ffffffffffffffffffffffffffffffffffffffff1614806117e557506117e484846108f0565b5b8061182357508273ffffffffffffffffffffffffffffffffffffffff1661180b83610b74565b73ffffffffffffffffffffffffffffffffffffffff16145b5b90509392505050565b600080600090507a184f03e93ff9f4daa797ed6e38ed64bf6a1f010000000000000000831061188b577a184f03e93ff9f4daa797ed6e38ed64bf6a1f010000000000000000838161188157611880612628565b5b0492506040810190505b6d04ee2d6d415b85acef810000000083106118c8576d04ee2d6d415b85acef810000000083816118be576118bd612628565b5b0492506020810190505b662386f26fc1000083106118f757662386f26fc1000083816118ed576118ec612628565b5b0492506010810190505b6305f5e1008310611920576305f5e100838161191657611915612628565b5b0492506008810190505b612710831061194557612710838161193b5761193a612628565b5b0492506004810190505b60648310611968576064838161195e5761195d612628565b5b0492506002810190505b600a8310611977576001810190505b80915050919050565b600073ffffffffffffffffffffffffffffffffffffffff168273ffffffffffffffffffffffffffffffffffffffff16036119f25760006040517f64a0ae920000000000000000000000000000000000000000000000000000000081526004016119e99190611c9e565b60405180910390fd5b6000611a0083836000610bcb565b9050600073ffffffffffffffffffffffffffffffffffffffff168173ffffffffffffffffffffffffffffffffffffffff1614611a745760006040517f73c6ac6e000000000000000000000000000000000000000000000000000000008152600401611a6b9190611c9e565b60405180910390fd5b505050565b6000604051905090565b600080fd5b600080fd5b60007fffffffff0000000000000000000000000000000000000000000000000000000082169050919050565b611ac281611a8d565b8114611acd57600080fd5b50565b600081359050611adf81611ab9565b92915050565b600060208284031215611afb57611afa611a83565b5b6000611b0984828501611ad0565b91505092915050565b60008115159050919050565b611b2781611b12565b82525050565b6000602082019050611b426000830184611b1e565b92915050565b600081519050919050565b600082825260208201905092915050565b60005b83811015611b82578082015181840152602081019050611b67565b60008484015250505050565b6000601f19601f8301169050919050565b6000611baa82611b48565b611bb48185611b53565b9350611bc4818560208601611b64565b611bcd81611b8e565b840191505092915050565b60006020820190508181036000830152611bf28184611b9f565b905092915050565b6000819050919050565b611c0d81611bfa565b8114611c1857600080fd5b50565b600081359050611c2a81611c04565b92915050565b600060208284031215611c4657611c45611a83565b5b6000611c5484828501611c1b565b91505092915050565b600073ffffffffffffffffffffffffffffffffffffffff82169050919050565b6000611c8882611c5d565b9050919050565b611c9881611c7d565b82525050565b6000602082019050611cb36000830184611c8f565b92915050565b611cc281611c7d565b8114611ccd57600080fd5b50565b600081359050611cdf81611cb9565b92915050565b60008060408385031215611cfc57611cfb611a83565b5b6000611d0a85828601611cd0565b9250506020611d1b85828601611c1b565b9150509250929050565b611d2e81611bfa565b82525050565b6000602082019050611d496000830184611d25565b92915050565b600080600060608486031215611d6857611d67611a83565b5b6000611d7686828701611cd0565b9350506020611d8786828701611cd0565b9250506040611d9886828701611c1b565b9150509250925092565b600060208284031215611db857611db7611a83565b5b6000611dc684828501611cd0565b91505092915050565b611dd881611b12565b8114611de357600080fd5b50565b600081359050611df581611dcf565b92915050565b60008060408385031215611e1257611e11611a83565b5b6000611e2085828601611cd0565b9250506020611e3185828601611de6565b9150509250929050565b600080fd5b600080fd5b7f4e487b7100000000000000000000000000000000000000000000000000000000600052604160045260246000fd5b611e7d82611b8e565b810181811067ffffffffffffffff82111715611e9c57611e9b611e45565b5b80604052505050565b6000611eaf611a79565b9050611ebb8282611e74565b919050565b600067ffffffffffffffff821115611edb57611eda611e45565b5b611ee482611b8e565b9050602081019050919050565b82818337600083830152505050565b6000611f13611f0e84611ec0565b611ea5565b905082815260208101848484011115611f2f57611f2e611e40565b5b611f3a848285611ef1565b509392505050565b600082601f830112611f5757611f56611e3b565b5b8135611f67848260208601611f00565b91505092915050565b60008060008060808587031215611f8a57611f89611a83565b5b6000611f9887828801611cd0565b9450506020611fa987828801611cd0565b9350506040611fba87828801611c1b565b925050606085013567ffffffffffffffff811115611fdb57611fda611a88565b5b611fe787828801611f42565b91505092959194509250565b600067ffffffffffffffff82111561200e5761200d611e45565b5b61201782611b8e565b9050602081019050919050565b600061203761203284611ff3565b611ea5565b90508281526020810184848401111561205357612052611e40565b5b61205e848285611ef1565b509392505050565b600082601f83011261207b5761207a611e3b565b5b813561208b848260208601612024565b91505092915050565b600080604083850312156120ab576120aa611a83565b5b60006120b985828601611cd0565b925050602083013567ffffffffffffffff8111156120da576120d9611a88565b5b6120e685828601612066565b9150509250929050565b6000806040838503121561210757612106611a83565b5b600061211585828601611cd0565b925050602061212685828601611cd0565b9150509250929050565b7f4e487b7100000000000000000000000000000000000000000000000000000000600052602260045260246000fd5b6000600282049050600182168061217757607f821691505b60208210810361218a57612189612130565b5b50919050565b60006060820190506121a56000830186611c8f565b6121b26020830185611d25565b6121bf6040830184611c8f565b949350505050565b600081905092915050565b60006121dd82611b48565b6121e781856121c7565b93506121f7818560208601611b64565b80840191505092915050565b600061220f82856121d2565b915061221b82846121d2565b91508190509392505050565b7f4e487b7100000000000000000000000000000000000000000000000000000000600052601160045260246000fd5b600061226182611bfa565b91507fffffffffffffffffffffffffffffffffffffffffffffffffffffffffffffffff820361229357612292612227565b5b600182019050919050565b600081519050919050565b600082825260208201905092915050565b60006122c58261229e565b6122cf81856122a9565b93506122df818560208601611b64565b6122e881611b8e565b840191505092915050565b60006080820190506123086000830187611c8f565b6123156020830186611c8f565b6123226040830185611d25565b818103606083015261233481846122ba565b905095945050505050565b60008151905061234e81611ab9565b92915050565b60006020828403121561236a57612369611a83565b5b60006123788482850161233f565b91505092915050565b60008190508160005260206000209050919050565b60006020601f8301049050919050565b600082821b905092915050565b6000600883026123e37fffffffffffffffffffffffffffffffffffffffffffffffffffffffffffffffff826123a6565b6123ed86836123a6565b95508019841693508086168417925050509392505050565b6000819050919050565b600061242a61242561242084611bfa565b612405565b611bfa565b9050919050565b6000819050919050565b6124448361240f565b61245861245082612431565b8484546123b3565b825550505050565b600090565b61246d612460565b61247881848461243b565b505050565b5b8181101561249c57612491600082612465565b60018101905061247e565b5050565b601f8211156124e1576124b281612381565b6124bb84612396565b810160208510156124ca578190505b6124de6124d685612396565b83018261247d565b50505b505050565b600082821c905092915050565b6000612504600019846008026124e6565b1980831691505092915050565b600061251d83836124f3565b9150826002028217905092915050565b61253682611b48565b67ffffffffffffffff81111561254f5761254e611e45565b5b612559825461215f565b6125648282856124a0565b600060209050601f8311600181146125975760008415612585578287015190505b61258f8582612511565b8655506125f7565b601f1984166125a586612381565b60005b828110156125cd578489015182556001820191506020850194506020810190506125a8565b868310156125ea57848901516125e6601f8916826124f3565b8355505b6001600288020188555050505b505050505050565b60006040820190506126146000830185611c8f565b6126216020830184611d25565b9392505050565b7f4e487b7100000000000000000000000000000000000000000000000000000000600052601260045260246000fdfea26469706673582212200425da33e2058b914ff966c46ffcf348a9cfe869057471fbc06bbbdeb1050dd064736f6c63430008180033",
  "linkReferences": {},
  "deployedLinkReferences": {}
}